:020000040800F2
:1000000000800120C93100081932000819320008A7
:1000100019320008193200081932000800000000E7
:10002000000000000000000000000000193200087D
:10003000193200080000000019320008A723000848
:100040001932000819320008193200081932000864
:100050001932000819320008592F00085F2F0008D4
:10006000652F00086B2F0008712F00081932000857
:100070001932000819320008193200081932000834
:100080001932000819320008193200080000000077
:10009000000000000000000000000000772F0008B2
:1000A000E13D0008593D0008F53D00087D3D000890
:1000B000913D0008A53D0008B93D0008193200082F
:1000C00019320008193200081932000819320008E4
:1000D00019320008952D0008AD2D00080000000021
:1000E0008D2F00085D26000819320008000000006E
:1000F00000000000000000000000000019320008AD
:100100000000000019320008CD3D00081932000837
:1001100000000000000000000000000000000000DF
:100120001932000819320008193200081932000883
:10013000193200080000000000000000000000006C
:10014000000000000000000000000000193200085C
:10015000193200081932000819320008C52D0008AC
:1001600019320008193200080000000000000000E9
:10017000000000000000000000000000000000007F
:10018000000000001932000800000000000000001C
:040190001932000818
:10019400034613F8012B002AFBD1181A01387047C3
:1001A40081F0004102E000BF83F0004330B54FEA24
:1001B40041044FEA430594EA050F08BF90EA020F91
:1001C4001FBF54EA000C55EA020C7FEA645C7FEA24
:1001D400655C00F0E2804FEA5454D4EB5555B8BF47
:1001E4006D420CDD2C4480EA020281EA030382EAB8
:1001F400000083EA010180EA020281EA0303362D4A
:1002040088BF30BD11F0004F4FEA01314FF4801C1C
:100214004CEA113102D0404261EB410113F0004F2E
:100224004FEA03334CEA133302D0524263EB4303E5
:1002340094EA050F00F0A780A4F10104D5F1200E83
:100244000DDB02FA0EFC22FA05F2801841F10001DE
:1002540003FA0EF2801843FA05F359410EE0A5F1B2
:1002640020050EF1200E012A03FA0EFC28BF4CF0E3
:10027400020C43FA05F3C01851EBE37101F0004599
:1002840007D54FF0000EDCF1000C7EEB00006EEBA6
:100294000101B1F5801F1BD3B1F5001F0CD3490830
:1002A4005FEA30004FEA3C0C04F101044FEA445287
:1002B40012F5800F80F09A80BCF1004F08BF5FEA0E
:1002C400500C50F1000041EB045141EA050130BDEE
:1002D4005FEA4C0C404141EB0101013C28BFB1F500
:1002E400801FE9D291F0000F04BF01460020B1FA4B
:1002F40081F308BF2033A3F10B03B3F120020CDA1E
:100304000C3208DD02F1140CC2F10C0201FA0CF0FB
:1003140021FA02F10CE002F11402D8BFC2F1200C60
:1003240001FA02F120FA0CFCDCBF41EA0C01904016
:10033400E41AA2BF01EB0451294330BD6FEA04045F
:100344001F3C1CDA0C340EDC04F11404C4F120024A
:1003540020FA04F001FA02F340EA030021FA04F35C
:1003640045EA030130BDC4F10C04C4F1200220FAB3
:1003740002F001FA04F340EA0300294630BD21FAF1
:1003840004F0294630BD94F0000F83F4801306BFB7
:1003940081F480110134013D4EE77FEA645C18BFAB
:1003A4007FEA655C29D094EA050F08BF90EA020F42
:1003B40005D054EA000C04BF1946104630BD91EA3A
:1003C400030F1EBF0021002030BD5FEA545C05D13D
:1003D4004000494128BF41F0004130BD14F580047C
:1003E4003CBF01F5801130BD01F0004545F0FE41F0
:1003F40041F470014FF0000030BD7FEA645C1ABF25
:10040400194610467FEA655C1CBF0B46024650EA5B
:10041400013406BF52EA033591EA030F41F4002187
:1004240030BD00BF90F0000F04BF0021704730B50D
:100434004FF4806404F132044FF000054FF00001E2
:1004440050E700BF90F0000F04BF0021704730B5A3
:100454004FF4806404F1320410F0004548BF404278
:100464004FF000013EE700BF42004FEAE2014FEACD
:1004740031014FEA02701FBF12F07F4393F07F4FA8
:1004840081F06051704732F07F4208BF704793F0AB
:100494007F4F04BF41F40021704730B54FF46074BE
:1004A40001F0004521F000411CE700BF50EA0102C1
:1004B40008BF704730B54FF000050AE050EA01026A
:1004C40008BF704730B511F0004502D5404261EBDA
:1004D40041014FF4806404F132045FEA915C3FF41B
:1004E400D8AE4FF003025FEADC0C18BF03325FEAB8
:1004F400DC0C18BF033202EBDC02C2F1200300FA69
:1005040003FC20FA02F001FA03FE40EA0E0021FA8D
:1005140002F11444BDE600BF70B54FF0FF0C4CF47B
:10052400E06C1CEA11541DBF1CEA135594EA0C0F2D
:1005340095EA0C0F00F0DEF82C4481EA030621EA68
:100544004C5123EA4C5350EA013518BF52EA0335A3
:1005540041F4801143F4801338D0A0FB02CE4FF055
:100564000005E1FB02E506F00042E0FB03E54FF085
:100574000006E1FB03569CF0000F18BF4EF0010E7D
:10058400A4F1FF04B6F5007F64F5407404D25FEA79
:100594004E0E6D4146EB060642EAC62141EA55512C
:1005A4004FEAC52040EA5E504FEACE2EB4F1FD0C6E
:1005B40088BFBCF5E06F1ED8BEF1004F08BF5FEAEC
:1005C400500E50F1000041EB045170BD06F000469E
:1005D40046EA010140EA020081EA0301B4EB5C044B
:1005E400C2BFD4EB0C0541EA045170BD41F4801143
:1005F4004FF0000E013C00F3AB8014F1360FDEBF68
:10060400002001F0004170BDC4F10004203C35DA43
:100614000C341BDC04F11404C4F1200500FA05F3C6
:1006240020FA04F001FA05F240EA020001F0004267
:1006340021F0004110EBD37021FA04F642EB0601DD
:100644005EEA430E08BF20EAD37070BDC4F10C0407
:10065400C4F1200500FA04F320FA05F001FA04F2CB
:1006640040EA020001F0004110EBD37041F10001B7
:100674005EEA430E08BF20EAD37070BDC4F12005C2
:1006840000FA05F24EEA020E20FA04F301FA05F22A
:1006940043EA020321FA04F001F0004121FA04F2D2
:1006A40020EA020000EBD3705EEA430E08BF20EAA2
:1006B400D37070BD94F0000F0FD101F000464000DC
:1006C40041EB010111F4801F08BF013CF7D041EA5E
:1006D400060195F0000F18BF704703F00046520062
:1006E40043EB030313F4801F08BF013DF7D043EA33
:1006F4000603704794EA0C0F0CEA135518BF95EAE9
:100704000C0F0CD050EA410618BF52EA4306D1D16F
:1007140081EA030101F000414FF0000070BD50EA8E
:10072400410606BF1046194652EA430619D094EA18
:100734000C0F02D150EA013613D195EA0C0F05D102
:1007440052EA03361CBF104619460AD181EA030156
:1007540001F0004141F0FE4141F470014FF000000E
:1007640070BD41F0FE4141F4780170BD70B54FF0A9
:10077400FF0C4CF4E06C1CEA11541DBF1CEA135529
:1007840094EA0C0F95EA0C0F00F0A7F8A4EB05040B
:1007940081EA030E52EA03354FEA013100F0888002
:1007A4004FEA03334FF0805545EA131343EA1263CB
:1007B4004FEA022245EA111545EA10654FEA002680
:1007C4000EF000419D4208BF964244F1FD0404F539
:1007D400407402D25B084FEA3202B61A65EB030595
:1007E4005B084FEA32024FF480104FF4002CB6EB52
:1007F400020E75EB030E22BFB61A754640EA0C00D2
:100804005B084FEA3202B6EB020E75EB030E22BF11
:10081400B61A754640EA5C005B084FEA3202B6EB52
:10082400020E75EB030E22BFB61A754640EA9C0011
:100834005B084FEA3202B6EB020E75EB030E22BFE1
:10084400B61A754640EADC0055EA060E18D04FEA9F
:10085400051545EA16754FEA06164FEAC30343EA3F
:1008640052734FEAC2025FEA1C1CC0D111F4801F0C
:100874000BD141EA00014FF000004FF0004CB6E705
:1008840011F4801F04BF01430020B4F1FD0C88BFA4
:10089400BCF5E06F3FF6AFAEB5EB030C04BFB6EBAF
:1008A400020C5FEA500C50F1000041EB045170BDA2
:1008B4000EF0004E4EEA113114EB5C04C2BFD4EBCF
:1008C4000C0541EA045170BD41F480114FF0000E53
:1008D400013C90E645EA060E8DE60CEA135594EACF
:1008E4000C0F08BF95EA0C0F3FF43BAF94EA0C0FD2
:1008F4000AD150EA01347FF434AF95EA0C0F7FF447
:1009040025AF104619462CE795EA0C0F06D152EA9A
:1009140003353FF4FDAE1046194622E750EA41067E
:1009240018BF52EA43067FF4C5AE50EA41047FF48F
:100934000DAF52EA43057FF4EBAE12E74FF0FF3CF4
:1009440006E000BF4FF0010C02E000BF4FF0010CC5
:100954004DF804CD4FEA410C7FEA6C5C4FEA430C3E
:1009640018BF7FEA6C5C1BD001B050EA410C0CBF8D
:1009740052EA430C91EA030F02BF90EA020F0020EF
:10098400704710F1000F91EA030F58BF994208BF56
:1009940090422CBFD8176FEAE37040F00100704713
:1009A4004FEA410C7FEA6C5C02D150EA013C07D16A
:1009B4004FEA430C7FEA6C5CD6D152EA033CD3D0B5
:1009C4005DF8040B704700BF8446104662468C46AF
:1009D4001946634600E000BF01B5FFF7B7FF0028E2
:1009E40048BF10F1000F01BD4DF808EDFFF7F4FF0B
:1009F4000CBF012000205DF808FB00BF4DF808ED96
:100A0400FFF7EAFF34BF012000205DF808FB00BFB8
:100A14004DF808EDFFF7E0FF94BF012000205DF8DA
:100A240008FB00BF4DF808EDFFF7CEFF94BF01208F
:100A340000205DF808FB00BF4DF808EDFFF7C4FF88
:100A440034BF012000205DF808FB00BF4FEA410CD1
:100A54007FEA6C5C02D150EA013C0AD14FEA430CB4
:100A64007FEA6C5C02D152EA033C02D14FF00000F1
:100A740070474FF0010070474FEA410212F500122F
:100A840015D211D56FF47873B3EB625212D94FEAD1
:100A9400C12343F0004343EA505311F0004F23FABB
:100AA40002F018BF404270474FF00000704750EA10
:100AB400013005D111F0004008BF6FF000407047CD
:100AC4004FF00000704700BF4A0011D212F5001227
:100AD40011D20DD56FF47873B3EB62520ED44FEA92
:100AE400C12343F0004343EA505323FA02F0704712
:100AF4004FF00000704750EA013002D14FF0FF3050
:100B040070474FF00000704753B94AB9002908BF35
:100B140000281CBF4FF0FF314FF0FF3000F00CB83D
:100B2400ADF1080C6DE904CE03F0B4FCDDF804E08B
:100B3400DDE9022304B07047704700BF10B5054CCF
:100B4400237833B9044B13B10448AFF30080012375
:100B5400237010BDBC00002000000000F84700080E
:100B640008B5034B1BB103490348AFF3008008BD2C
:100B740000000000C0000020F847000808B50D2060
:100B840002F048FC034A136810B1013B136008BD2E
:100B94000133FBE7E40000201B490A68531C30B50D
:100BA4000B601A4BD86982422CD19C6918681D6A63
:100BB400DFED176A00220A60611C844208BF1146F7
:100BC400144C99612468641B07EE904AF8EEE77AA6
:100BD40003EB8101C1ED017A0433904205DDF3ECAE
:100BE400017A013276EEA76AF7E707EE900AF8EE8B
:100BF400E77A094B86EEA77AF2EE047A67EE277A53
:100C0400C3ED007A30BD00BFD800002000000020F2
:100C140000000000E4000020E000002008B50D48BA
:100C240006224FF4E13102F01DFD0B4B0B49B3F9E1
:100C34001630013314BF0B204FF0FF30032203F0B2
:100C4400DBFA074800F049F8BDE808400448C82129
:100C540000F06FB8800200208C4B0008810B000864
:100C6400E800002008B54FF4FA7002F005FC064BCA
:100C74001868FFF7F9FBBDE8084041EC100B034886
:100C8400022103F031BA00BFE000002080020020FE
:100C940008B5044800F00CF8034B1A68034B1A60BB
:100CA40008BD00BFE8000020E4000020DC000020B4
:100CB4000222027004224270092282700622C2704B
:100CC4003522027107224271082282710A22C271FE
:100CD4000C22027236224272704710B5044601217A
:100CE400007802F00FFB6078012102F00BFBA07882
:100CF400012102F007FBE078002102F003FB2079D8
:100D0400002102F0FFFA6079012102F0FBFAA079D8
:100D1400012102F0F7FAE079012102F0F3FA207AD6
:100D2400002102F0EFFA607A0021BDE8104002F0E1
:100D3400E9BA70B50C1EBABF644201260026B4F5A8
:100D4400C87F21460546A8BF4FF4C87133234B43DF
:100D540080785021B3FBF1F102F070FA287844B99D
:100D6400214602F029FB21466878BDE8704002F074
:100D740023BB26B1002102F01FFB0121F4E701216E
:100D840002F01AFB3146EFE710B50A4C226813183B
:100D9400EFF308818B4206D9074B0C221A604FF0FF
:100DA400FF32104610BD05490548091A8B42F3D29B
:100DB4002360F6E724000020AC030020008001201B
:100DC40000040000FEE70000024B16221A604FF0F8
:100DD400FF307047AC0300200120704770470000CB
:100DE40038B50E4A0E4B054618784FF47A73B3FBA8
:100DF400F0F31068B0FBF3F000F0A8F8044658B91B
:100E04000F2D09D8024629464FF0FF3000F04AF86A
:100E1400044B20461D6038BD0120FCE7480000203B
:100E2400280000202C00002008B50B4B1A6842F45F
:100E340000721A601A6842F480621A601A6842F4F6
:100E440080721A60032000F01BF80020FFF7C8FF2F
:100E5400FFF7C4FF002008BD003C0240034A044BD6
:100E640011681B780B441360704700BFA80300206F
:100E740028000020014B1868704700BFA803002019
:100E84000749CA6822F4E0620302120403F4E0632F
:100E9400120C134343F0BF6343F40033CB60704739
:100EA40000ED00E0164B30B5DC68C4F30224C4F155
:100EB4000705231D042D28BF0425062B4FF0FF33FF
:100EC4008CBF033C002403FA05F521EA0501A34085
:100ED40022EA0302A140002841EA0203ACBF00F168
:100EE4006040084A4FEA0313B8BF00F00F00DBB2BA
:100EF400AABF00F56140135480F8003330BD00BF31
:100F040000ED00E014ED00E0002808DB42090123B5
:100F140000F01F0003FA00F0014B43F82200704771
:100F240000E100E000280DDB4309012200F01F006E
:100F340002FA00F02033044A42F82300BFF34F8F33
:100F4400BFF36F8F704700BF00E100E00138B0F1DC
:100F5400807F0AD2064B074A5860F02182F823109A
:100F64000020072298601A6070470120704700BF74
:100F740010E000E000ED00E0002809DB4309012255
:100F840000F01F0002FA00F06033024A42F8230026
:100F9400704700BF00E100E008B5FFF7FDFD08BDA4
:100FA40090F83530022B03D080234365012070472D
:100FB4000268052380F83530136823F001031360B9
:100FC400002070472DE9F74FDFF88C81604A002339
:100FD4004FF001090D6809FA03F404EA0506AC436D
:100FE40040F0A6804C6824F0100C4FEA430E032511
:100FF4000CF1FF3705FA0EF5012F6FEA050511D83C
:10100400876807EA050ACF6807FA0EF747EA0A076E
:101014008760476827EA060AC4F300179F4047EA37
:101024000A074760C76807EA050A8F6807FA0EF7D8
:1010340047EA0A07BCF1020FC76016D14FEAD30A88
:1010440000EB8A0A03F0070BDAF820704FEA8B0BE7
:101054004FF00F0C0CFA0BFC27EA0C0C0F6907FA83
:101064000BF747EA0C07CAF8207007683D4004F004
:10107400030707FA0EFE4EEA05050560E50057D59D
:101084004FF0000BCDF804B0D8F84470314D47F45C
:101094008047C8F84470D8F8447007F48047019733
:1010A400019F23F0030707F1804707F59C3703F0FE
:1010B400030ED7F808A04FEA8E0E4FF00F0C0CFA6F
:1010C4000EFCA8422AEA0C0C39D005F58065A8422A
:1010D40037D005F58065A84235D005F58065A8426E
:1010E40033D005F58065A8420CBF0425072505FA11
:1010F4000EF545EA0C05BD601568F74314F4803F0E
:101104000CBF3D4035431560556814F4003F0CBFD7
:101114003D4035435560956814F4801F0CBF3D4035
:1011240035439560D568A40254BF3D403543D5602E
:101134000133102B7FF44EAF03B0BDE8F08F5D4652
:10114400D5E70125D3E70225D1E70325CFE700BF83
:10115400003C01400000024000380240044A51694A
:10116400014208B502D0506101F0DEFE08BD00BFA7
:10117400003C01402DE9F341044640B30368DD0718
:1011840010D4236898075ED423681A0700F1A0805E
:1011940023685B0700F1BE80A069002840F01F812E
:1011A40000202BE0A64B9A6802F00C02042A07D018
:1011B4009A6802F00C02082A0BD15A68510208D529
:1011C4009F4B1B689A03DCD56368002BD9D101209F
:1011D40014E06268B2F5803F13D11A6842F4803299
:1011E4001A60FFF747FE964E054633689B03C8D442
:1011F400FFF740FE401B6428F7D9032002B0BDE886
:10120400F0818F4DB2F5A02F2B6807D143F48023D2
:101214002B602B6843F480332B60E2E723F48033A4
:101224002B602B6823F480232B60002AD9D1FFF78D
:1012340021FE06462B689F03A3D5FFF71BFE801BE8
:101244006428F7D9D9E77E4B9A6812F00C0F07D0BF
:101254009A6802F00C02082A11D15B685E020ED46F
:10126400774B1A68950702D5E268012AAFD11A684C
:10127400216922F0F80242EAC1021A6084E7E268B6
:10128400704BB2B101221A60FFF7F4FD6C4D0646B3
:101294002B68980707D52B68226923F0F80343EAE3
:1012A400C2032B6070E7FFF7E5FD801B0228EFD92E
:1012B400A3E71A60FFF7DEFD614E05463368990720
:1012C4007FF562AFFFF7D6FD401B0228F6D994E7FD
:1012D40062695D4B7AB101221A60FFF7CBFD584E6B
:1012E4000546736F9F073FF553AFFFF7C3FD401BE0
:1012F4000228F6D981E71A60FFF7BCFD504E054677
:10130400736F98077FF544AFFFF7B4FD401B0228C5
:10131400F6D972E74A4B1A6C12F0805228D1019226
:101324001A6C42F080521A641B6C03F080530193D0
:10133400019B0127454D2B68D9051BD5A368404D5A
:10134400012B27D12B6F43F001032B67FFF792FD8D
:101354003B4E054641F28838336F9B0739D5002F41
:101364003FF41AAF364A136C23F08053136413E727
:101374000027DFE72B6843F480732B60FFF77AFDC7
:1013840006462B68DA05D9D4FFF774FD801B0228C2
:10139400F7D932E7052B04D12B6F43F004032B67F5
:1013A400D0E72A6F22F001022A672A6F22F0040292
:1013B4002A67002BCAD1FFF75DFD41F28838064643
:1013C4002B6F9807CBD5FFF755FD801B4045F7D908
:1013D40013E7FFF74FFD401B4045BDD90DE7184DFE
:1013E400AB6803F00C03082B47D0194E00230228E6
:1013F400336035D1FFF73EFD07462B68990129D4A8
:10140400D4E907321343626A43EA8213E26A43EA85
:101414000263A26A5208013A43EA02436B60012361
:101424003360FFF727FD064D04462B689A013FF50C
:10143400B7AEFFF71FFD001B0228F6D9DDE600BF9B
:101444000038024000004742800E474200700040CE
:1014540060004742FFF70EFDC01B0228CDD9CCE641
:10146400FFF708FD04462B689B017FF599AEFFF753
:1014740001FD001B0228F6D9BFE601283FF4BEAEE9
:10148400AB68E26903F4800191427FF4A0AE216A63
:1014940003F03F028A427FF49AAE616A47F6C07253
:1014A4001A408A427FF493AEA16A03F440328A421E
:1014B4007FF48DAEE26A03F0706393423FF470AE42
:1014C40085E600BF134908B58B6803F00C03042BB1
:1014D4001CD0082B1CD14A684B68496813F480035C
:1014E40014BF0D480D48C1F3881118BF002302F042
:1014F4003F02A1FB0001FFF707FB064B5B68C3F348
:10150400014301335B00B0FBF3F008BD0248FCE784
:101514000248FAE70038024000127A000024F4007E
:101524002DE9F0410D46044610B90120BDE8F081D3
:10153400444B1A6802F00F028A4228D322689707A4
:101544002DD4D00741D43F4B1A6802F00F02AA42AF
:1015540066D8226851076CD4130707D53A4A216923
:10156400936823F4604343EAC1039360FFF7AAFF3F
:10157400354B364A9B68C3F30313D35CD840344BD2
:101584001860344B1868FFF72BFC0020CEE7CAB272
:101594001A701B6803F00F038B42C6D1CEE72A4BA7
:1015A40012F0040F1EBF996841F4E05199601607C8
:1015B40042BF996841F4604199602349A0688B68EF
:1015C40023F0F00303438B60BBE762681E4B012AE0
:1015D4001CD11B6813F4003FA7D01B4EB36823F043
:1015E40003031343B360FFF745FC41F28838074611
:1015F400B368626803F00C03B3EB820FA3D0FFF768
:1016040039FCC01B4045F3D903208FE7911E012903
:101614001B6802D813F0007FDEE713F0020FDBE74C
:10162400EAB21A701B6803F00F03AB427FF47DAF7C
:101634008FE70549E0688B6823F4E05303438B602C
:101644008AE700BF003C024000380240B44800086A
:10165400480000202C000020014B1868704700BF90
:1016640048000020044B054A9B68C3F38223D35CE3
:10167400034A1068D840704700380240C448000844
:1016840048000020044B054A9B68C3F34233D35CF3
:10169400034A1068D840704700380240C448000824
:1016A400480000200F2303600B4B9A6802F00302EA
:1016B40042609A6802F0F00282609A6802F4E05292
:1016C400C2609B68DB0803F4E0530361034B1B68AF
:1016D40003F00F030B60704700380240003C0240E7
:1016E400032303600C4BD3F88420C2F388124260B6
:1016F400D3F88420C2F30272826099681A6F01F4ED
:10170400F81102F440720A43C260D3F88C30C3F378
:1017140000630374704700BF0038024003689A688E
:10172400D20410B504460AD5DB68D90507D500F004
:1017340087FF2268D368DBB263F4C073D360236885
:101744009A6892040BD5DB689B0508D5204600F007
:101754000FF82268D368DBB263F42073D360034BC1
:101764004FF400325A610123637710BD003C0140FD
:1017740070470000036A23F001030362036A70B533
:10178400446882690D6822F073022A438D6823F04D
:1017940002032B430A4DA8420BD1CD6823F0080362
:1017A4002B43D1E9055624F44074354323F0040354
:1017B4002C43446082614A684263036270BD00BF87
:1017C40000000140036A23F480730362036A70B566
:1017D4004468C2690D6822F073022A438D6823F4B9
:1017E400007343EA05230B4DA8420DD1CD6823F4C1
:1017F400006343EA0523D1E9055624F440543543F4
:1018040023F4806344EA05144460C2614A68C263F5
:10181400036270BD00000140036A23F48053036235
:10182400036A30B54468C2690D6822F4E64242EAAC
:1018340005228D6823F4005343EA0533064DA8427C
:1018440002BF4D6924F4804444EA85144460C261B3
:101854004A680264036230BD00000140022380F83C
:101864003D3003689A6802F00702062A1EBF1A6810
:1018740042F001021A60012380F83D3000207047D5
:101884007047704703681A69910710B504460ED56E
:10189400DA6892070BD56FF002021A61012202770F
:1018A4009B699B0777D002F0F7FA0023237723681C
:1018B4001A69500710D5DA6851070DD56FF0040284
:1018C4001A61022222779B6913F4407F204668D074
:1018D40002F0E2FA0023237723681A6912070FD56E
:1018E400DA6810070CD56FF008021A610422227717
:1018F400DB69990720465AD002F0CEFA00232377F9
:1019040023681A69D20610D5DA68D0060DD56FF0AF
:1019140010021A6108222277DB6913F4407F204603
:101924004BD002F0B9FA0023237723681A69D10750
:1019340008D5DA68D20705D56FF001021A6120468E
:1019440002F07EFA23681A69100608D5DA681106CF
:1019540005D56FF080021A61204600F076FA2368FC
:101964001A69520608D5DA68500605D56FF04002A8
:101974001A612046FFF785FF23681A69910622D56C
:10198400DA6892061FD56FF0200220461A61BDE87E
:10199400104000F059BA02F07DFA2046FFF770FFBC
:1019A40083E702F077FA2046FFF76AFF92E702F036
:1019B40071FA2046FFF764FFA0E702F06BFA2046B5
:1019C400FFF75EFFAFE710BD244A036890420ED0D4
:1019D400B0F1804F0BD0A2F57C42904207D002F5C3
:1019E4008062904203D002F58062904215D14A6829
:1019F40023F070031343194A904219D0B0F1804F79
:101A040016D0A2F57C42904212D002F58062904238
:101A14000ED002F5806290420AD0114A904207D05B
:101A240002F58062904203D002F58062904203D1B5
:101A3400CA6823F4407313434A6923F080031343B1
:101A440003608B68C3620B688362044B984204BFD3
:101A54000B69036301234361704700BF0000014029
:101A64000040014010B50446A0B190F83D3003F0A9
:101A7400FF021BB980F83C2000F082FF022320689B
:101A840084F83D30211DFFF79FFF012384F83D308A
:101A9400002010BD0120FCE7036A23F01003036259
:101AA400036A70B5446882690D6822F4E64242EA2A
:101AB40005228D6823F0200343EA05130B4DA84249
:101AC4000DD1CD6823F0800343EA0513D1E905560F
:101AD40024F44064354323F0400344EA850444601D
:101AE40082614A688263036270BD00BF00000140E6
:101AF40010B590F83C30012B04464FF0020010D092
:101B04000123082A84F83C3084F83D0018D009D811
:101B140072B1042A10D00123002084F83D3084F8E7
:101B24003C0010BD0C2AF6D12068FFF775FEF2E7E1
:101B34002068FFF71FFEEEE72068FFF7ADFFEAE736
:101B44002068FFF73FFEE6E738B590F83C30012BFC
:101B540004464FF0020010D00123082A84F83C30D8
:101B640084F83D003FD009D8DAB1042A2AD00123F1
:101B7400002084F83D3084F83C0038BD0C2AF6D1AE
:101B84002068FFF749FE23680969DA6942F40062B4
:101B9400DA61DA6922F48062DA61DA6942EA0122FE
:101BA40030E02068FFF7E6FD236809699A6942F08E
:101BB40008029A619A6922F004029A619A690A43B6
:101BC4009A61D4E72068FFF767FF236809699A6977
:101BD40042F400629A619A6922F480629A619A6975
:101BE40042EA0122ECE72068FFF7ECFD236809696B
:101BF400DA6942F00802DA61DA6922F00402DA6191
:101C0400DA690A43DA61B2E770B5046A164E24F061
:101C140001040462B0428469056A21D0B0F1804FA6
:101C24001ED0A6F57C46B0421AD006F58066B042B6
:101C340016D006F58066B04212D006F59A36B04248
:101C44000ED044F001021B01DBB222F0F0021A4371
:101C540001F00A0125F00A0319438261016270BD93
:101C640024F003042243EEE700000140F8B590F8A5
:101C74003C30012B04460E4615464FF002001AD0A4
:101C8400012384F83D0084F83C30D1E90012206837
:101C9400F3688DB9FFF7B8FF2368B1689A6922F039
:101CA4000C029A619A690A439A610123002084F81C
:101CB4003D3084F83C00F8BD042DB66822D1056A95
:101CC40025F0100505628769D0F820E027F4407CF0
:101CD4001D034CEA022C09012CF4704CADB22EF019
:101CE400A00E01F0A00145EA0C0541EA0E01856150
:101CF4000162836923F440638361836943EA0626AE
:101D04008661D2E7082D056A1CD125F48075056229
:101D1400C769056A27F0030717431B010902DBB2F1
:101D240027F0F00725F4206501F420611F432943BF
:101D3400C7610162C36923F00C03C361C3691E4315
:101D4400C661B2E725F480550562C569076A25F4C2
:101D5400407545EA02251B03090325F470459BB22F
:101D640027F4204701F420412B433943C361016226
:101D7400C36923F44063C361C36943EA0626DFE70A
:101D8400036A01F01F0110B501248C4023EA040307
:101D94000362036A8A401A43026210BD10B5044606
:101DA40001220068FFF7ECFF2368094A934202BF4F
:101DB4005A6C42F400425A649A6802F00702062AF6
:101DC4001EBF1A6842F001021A60002010BD00BF55
:101DD40000000140FFF7E2BF10B50446012200688D
:101DE400FFF7CEFF23689A6802F00702062A1EBF97
:101DF4001A6842F001021A60002010BD036A01F063
:101E04001F0110B504248C4023EA04030362036A0F
:101E14008A401A43026210BD10B5044604220068C9
:101E2400FFF7ECFF23685A6C42F400425A649A6844
:101E340002F00702062A1EBF1A6842F001021A6065
:101E4400002010BDFFF7E8BF704770470368DA68E9
:101E540022F49072DA605A6922F001025A61202356
:101E640080F83A307047000038B50368C1681A69D1
:101E7400044622F440520A431A612569A268D968CB
:101E8400C0692A43656921F416412A4321F00C01F3
:101E940002430A43DA605A69A16922F440720A4390
:101EA400B0F5004F5A61254A28D1934203D002F578
:101EB400806293421FD1FFF7E5FB6268002392180A
:101EC4004FF019015B41A0FB0101FEF71DFE6421E7
:101ED400B0FBF1F501FB1503DB003233B3FBF1F387
:101EE40003F007025B00216802EB051203F4F873A8
:101EF40013448B6038BDFFF7B5FBDEE7934202D095
:101F04000F4A934217D1FFF7BDFB636819219A006A
:101F1400A0FB01019B0FFEF7F7FD6422B0FBF2F179
:101F240002FB110324681B013233B3FBF2F303EB0E
:101F34000113A360DEE7FFF795FBE6E7001001401D
:101F440000140140704710B5044640B390F839308E
:101F540003F0FF021BB980F83820FFF7F3FF226873
:101F6400242384F83930D36823F40053D360204603
:101F7400FFF77AFF23681A6922F490421A615A69BA
:101F840022F02A025A61DA6842F40052DA60002030
:101F94002023E06384F8393084F83A3010BD0120FE
:101FA400FCE710B5044660B390F8393003F0FF0243
:101FB4001BB980F83820FFF7C5FF2268242384F872
:101FC4003930D36823F40053D3602046FFF74CFF25
:101FD40023681A6922F490421A615A6922F0220293
:101FE4005A615A6942F008025A61DA6842F40052AE
:101FF400DA6000202023E06384F8393084F83A3032
:1020040010BD0120FCE790F83930202B18D1A9B17C
:10201400A2B190F83830012B12D0C28401628284BC
:10202400016800232122C36380F8383080F8392006
:10203400CA6842F08002CA6018467047012070479F
:102044000220704790F83A30202B20D1E9B1E2B158
:1020540090F83830012B1AD0C285828500232222C1
:10206400C36380F83A20026880F838308162D1680E
:1020740041F48071D160516941F001015161D1682D
:1020840041F02001D16018467047012070470220BA
:10209400704710B590F83A30222B33D18168046927
:1020A400836A0268B1F5805F23D15268ECB9C2F348
:1020B400080223F8022B8362C48D013CA4B2C485B8
:1020C4008CB90368DA6822F02002DA60DA6822F454
:1020D4008072DA605A6922F001025A61202380F882
:1020E4003A3000F001FE00200DE0D2B223F8012BBB
:1020F400E1E7591C526881620CB91A70DCE702F0FE
:102104007F02FAE7022010BD03681A68D96870B527
:1021140016075D69044607D196065CD58D065AD527
:10212400BDE87040FFF7B5BF05F0010001F49075FC
:10213400054350D0D60705D5CD0542BFE36B43F028
:102144000103E363530704D518B1E36B43F00203BF
:10215400E363960704D518B1E36B43F00403E36328
:10216400150707D501F0200303431EBFE36B43F0BB
:102174000803E363E36B4BB3900604D5890602D5E9
:102184002046FFF786FF23685B69E56B03F0400395
:1021940005F008051D43204619D0FFF757FE2368B4
:1021A4005A6952060FD55A69606B22F040025A618F
:1021B40048B1264B0365FEF7F3FE38B1606BBDE80A
:1021C4007040036D1847204600F0A4FD70BD00F078
:1021D400A1FDE563FAE7160628D50D0626D594F881
:1021E4003920212AF2D1A168226AB1F5805F18D181
:1021F4001188C1F308015960216981B90232226250
:10220400E28C013A92B2E284002ADFD1DA6822F049
:102214008002DA60DA6842F04002DA60D6E701321E
:10222400EDE7511C216212785A60E9E75006CDD5DA
:102234004A06CBD5DA6822F04002DA60202384F81B
:102244003930204600F053FDC0E700BF5522000896
:1022540008B5806B0023C385C38400F05BFD08BD13
:1022640090F83830012B11D00268242380F83930DB
:10227400D36823F00C0343F00803D360202380F8D1
:102284003930002380F838301846704702207047F0
:1022940090F83830012B11D00268242380F83930AB
:1022A400D36823F00C0343F00403D360202380F8A5
:1022B4003930002380F838301846704702207047C0
:1022C40090F8392090F83A001043704786B0002304
:1022D400052853D8DFE800F003111E2B384500937E
:1022E400274B28481A6B42F001021A631B6B03F058
:1022F40001030093009B06B070470193204B2248D2
:102304001A6B42F002021A631B6B03F0020301937F
:10231400019BF0E702931A4B1C481A6B42F004022B
:102324001A631B6B03F004030293029BE3E703931A
:10233400134B17481A6B42F008021A631B6B03F025
:1023440008030393039BD6E704930D4B11481A6BC0
:1023540042F010021A631B6B03F010030493049BF6
:10236400C9E70593064B0C481A6B42F080021A63C6
:102374001B6B03F080030593059BBCE70020BAE7C1
:1023840000380240000002400004024000080240FD
:10239400000C024000100240001C0240FEF76ABD1F
:1023A400704708B5FEF75AFDFEF7F6FDFFF7F8FF94
:1023B40008BD00000B4BDA68D2015EBFDA6842F058
:1023C4008072DA60084B00225A601A6842F00102F7
:1023D4001A6000BF00BF00BF5868B0FA80F040091F
:1023E400704700BFF0ED00E0001000E008B5FFF713
:1023F400E1FFFEF719FDBDE8084000F087BE30B5E7
:10240400436891FAA1F4B4FA84F50124AC4023EAB8
:10241400040391FAA1F1B1FA81F18A4013434360B4
:1024240030BD30B5C46891FAA1F3B3FA83F3032540
:102434005B0005FA03F324EA030391FAA1F1B1FA6C
:1024440081F149008A401343C36030BD431C04D06A
:102454000C3131F90C3C5A1C01D1002070478342E5
:1024640001F10C01F5D101207047000000F00F02CA
:10247400484B2DE9F041C0F303141FFA80F80130F2
:1024840053F822500E4601F0070703D14248482171
:1024940000F0E8F82046FFF719FF8368044695FA30
:1024A400A5F2B2FA82F20321520001FA02F223EAFF
:1024B400020195FAA5F3B3FA83F35A000323934078
:1024C4000B438360032F35D8DFE807F01D1D021D81
:1024D40018F0080FC6F3062217D0406A2B0A93FAA5
:1024E400A3F1B1FA81F14FF00F0C89000CFA01F15C
:1024F40020EA010193FAA3F3B3FA83F39B0002FAEF
:1025040003F30B4363623B4619E0036A95FAA5F1B2
:10251400B1FA81F10F20890000FA01F123EA0101E7
:1025240095FAA5F3B3FA83F39B0002FA03F30B4382
:102534002362E8E718488D2100F094F8002321680D
:1025440095FAA5F2B2FA82F20320520000FA02F2DE
:1025540021EA020195FAA5F2B2FA82F252009340FE
:10256400013F0B43012F236007D816F0080218BF60
:10257400012229462046FFF742FFC6F30112012A31
:1025840002D0022A18BF002229462046BDE8F041A5
:10259400FFF747BF7448000810480008431C06D1E1
:1025A4007047834202D18968FFF760BF0C31B1F9EB
:1025B40000305A1CF5D10248B92100F053B800BFCD
:1025C40010480008B1F900305A1C01D100207047AE
:1025D400834201D1486870470C31F3E7431C01D0B2
:1025E400FFF7F0BF002070474B6813B94FF0FF307E
:1025F4007047834202D1B1F9000070470C31F3E710
:1026040008B1FFF7F1BF4FF0FF307047B1F9003068
:102614005A1C01D118467047834201D1886870471B
:102624000C31F3E7431C01D0FFF7F0BF7047884239
:1026340004D018B100290CBF014600210846704798
:10264400034B1B6813B1034A10681847704700BF57
:10265400F4000020180100200148FFF75FB800BF14
:10266400F8000020FEE700000F49D1F8883043F459
:102674007003C1F888300D4B1A68002042F0010243
:102684001A6098601A6822F0847222F480321A6008
:10269400074A5A601A6822F480221A60D8604FF000
:1026A40000638B60704700BF00ED00E0003802401B
:1026B400103000240438704703683F4A934288B0BE
:1026C4001BD1002200923D4A516C41F0010151643A
:1026D400526C02F001020092009A394A93423FD1AF
:1026E40000230593354B5A6C42F480325A645B6C78
:1026F40003F480330593059B17E0B3F1804F16D0A4
:10270400304A934220D0304A934239D02F4A9342E0
:10271400E3D100230493294B1A6C42F008021A6493
:102724001B6C03F008030493049B08B07047002259
:102734000192224A116C41F001011164126C02F001
:1027440001020192019AC8E7002202921B4A116C0D
:1027540041F002011164126C02F002020292029A28
:102764001B4A934218D100230693144B5A6C42F42B
:1027740000325A645B6C03F400330693069BD4E77F
:10278400002203920D4A116C41F004011164126C91
:1027940002F004020392039A0E4A9342C5D1002325
:1027A4000793064B5A6C42F480225A645B6C03F420
:1027B40080230793079BB8E70000014000380240DC
:1027C400004001400004004000080040000C0040AC
:1027D40000440140004801400368224A93420DD15D
:1027E40021494A6C22F001024A64204A934222D1D0
:1027F4001D4A536C23F4803353647047B3F1804F04
:102804000ED01B4A934211D01A4A93421BD01A4A43
:102814009342EAD1144A136C23F0080313647047FB
:1028240011490A6C22F001020A64DEE70E490A6CBF
:1028340022F002020A64114A934209D10A4A536CF3
:1028440023F40033D8E708490A6C22F004020A642E
:102854000B4A934200D07047034A536C23F48023FD
:10286400CAE700BF000001400038024000400140B8
:102874000004004000080040000C004000440140F7
:102884000048014008B5431C014611D0184B98423A
:1028940024D010D8A3F50063984221D003F58063B7
:1028A40098421FD0B0F1804F1ED01248FFF7DAFED5
:1028B4006FF00D0008BD104B984217D009D8A3F54E
:1028C4008843984212D003F580439842EDD11820F2
:1028D400F0E70A4B9842E8D11A20EBE73220E9E707
:1028E4001D20E7E71E20E5E71C20E3E71920E1E7C8
:1028F400000C0040CC48000800440140004801405E
:1029040008B5431C014612D0194B984224D016D85E
:10291400A3F57843984221D00CD8B0F1804F1FD052
:10292400A3F5806398421DD01248FFF79BFE6FF019
:102934000D0008BD104B9842F6D13220F9E70F4B39
:10294400984211D003F5806398420FD0A3F5006339
:102954009842E9D11820ECE71B20EAE71E20E8E7BB
:102964001C20E6E71D20E4E71920E2E71A20E0E74F
:1029740000000140CC480008000C00400044014025
:1029840038B50446FFF798FE0068FFF77BFFD4E9EB
:102994001012FEF787FA2068FFF774FFFEF7B4FA07
:1029A4002068FFF7ADFF05462068FFF76BFF8542FF
:1029B4000DD02068FFF7A4FFD4E91012FEF772FAD5
:1029C4002068FFF79DFFBDE83840FEF79DBA38BD8B
:1029D40008B5431C014610D0114B98421BD011D8A6
:1029E400A3F57843984218D009D820F48063B3F152
:1029F400804F12D00B48FFF735FE002008BD0A4B6C
:102A04009842F6E7094B984205D020F48062A3F57A
:102A140000639A42EED10220F0E70120EEE700BF06
:102A240000000140E4480008000C00400048014058
:102A34002DE9FF4704468946B0F94C004C49DDF8BE
:102A440030A090461F46FFF7C9FD4A490546B4F930
:102A54004E00FFF7C3FD0646002D00F08580B4F953
:102A64004E30013301D000287ED031462846FFF78E
:102A7400DEFD2060002877D03F4B98423AD103F521
:102A840094335A6A42F010025A625A6A22F01002CF
:102A94005A62002201925A6C42F010025A645B6C32
:102AA40003F010030193019B2523A4F8503030490F
:102AB400B4F94C00FFF772FD26B12E49B4F94E006B
:102AC400FFF76CFD94F851202C4B6761201D43F8EF
:102AD400220023680C22C4E901390023C4E9038AD3
:102AE400C4E906232362002E39D104B0BDE8F047BF
:102AF400FFF757BA224B984217D103F5FA331A6AF3
:102B040042F400321A621A6A22F400321A62002273
:102B140002921A6C42F400321A641B6C03F4003300
:102B24000293029B4FF49373BFE7164B9842BED1B6
:102B3400154D6B6A43F020036B626B6A23F020032C
:102B44006B62002303936B6C43F020036B646B6C28
:102B540003F020030393039B40F24723A5E704B04B
:102B6400BDE8F047FFF7EFB904B0BDE8F08700BF58
:102B7400B04A0008684A0008001001401C01002007
:102B840000440040001401400038024008B1FFF73F
:102B94004FBF704708B5074B90F8512053F82200F7
:102BA400FFF78EFB00F02200A0F1220358425841A7
:102BB40008BD00BF1C01002008B5074B90F8512048
:102BC40053F82200FFF77CFB00F02100A0F1210361
:102BD4005842584108BD00BF1C01002070B50E4684
:102BE400054610B94FF0FF3070BDFFF7D3FF044620
:102BF4000028F7D12946012211F8523F337095F885
:102C04005100034B53F82000FFF71CFA2046EBE772
:102C14001C01002070B50E460446F0B1FFF7BAFF60
:102C24000546D0B994F950006664FEF77BF994F830
:102C340051000A4B04F1520153F820000122FFF71E
:102C440001FA94F950002A460121FEF72BF994F970
:102C54005000BDE87040FEF757B970BD1C0100205C
:102C640010B50446E8B1816490F95000FEF75AF9B2
:102C7400A36DB4F8621094F8510013FA81F1094B72
:102C8400012253F82000FFF7BEF994F95000002206
:102C94000121FEF707F994F95000BDE81040FEF752
:102CA40033B910BD1C01002050B1B0F94E300133CE
:102CB40006D190F85120034B53F82200FFF7D0BA05
:102CC400704700BF1C01002050B1B0F94E300133F1
:102CD40006D190F85120034B53F82200FFF7D8BADD
:102CE400704700BF1C010020036C0438184710B55E
:102CF400436C04460438984701300AD0B4F85E1097
:102D0400636D20460122BDE8104013FA81F1FFF7FC
:102D14007AB910BD1FB503680446186810F00100A5
:102D240013D0002200921A6800925B680093009B03
:102D3400201FFFF72FFF40BB012204F14E01204664
:102D440004B0BDE81040FFF77DB9196811F0020125
:102D540006D001901A6801925B680193019BE7E732
:102D64001A6812F0040206D002911A6802925B6893
:102D74000293029BDCE719680907D9D503921A6804
:102D840003925B680393039BD2E704B010BD000079
:102D940008B52520FEF7F0F8024B1868BDE8084096
:102DA400FFF7B2B91C01002008B52620FEF7E4F8AD
:102DB400024B5868BDE80840FFF7A6B91C01002083
:102DC40008B54720FEF7D8F8024B9868BDE80840DC
:102DD400FFF79AB91C01002008B50649FFF722FC49
:102DE400C0F3C430831E022B9ABF80000438002035
:102DF40008BD00BF004900082DE9F347894625496D
:102E0400254C984617460646FFF7E8FB00F026FED9
:102E140054F8203005467BB91E493046FFF7DEFBE7
:102E24000190A82001F01CFA0199824600F06CFE82
:102E340054F82530C3F800A054F8253015491C680F
:102E44003046FFF7EFFBC0F3C4352946204600F0B7
:102E5400FDFD0528824605D0334605222946204635
:102E640000F04AFD02224946204600F0F1FE4346A6
:102E74003A462946204600F00DFFBAF1050F05D069
:102E8400204602B0BDE8F04700F014BD02B0BDE832
:102E9400F08700BF004900088003002073B515497E
:102EA400154C0646FFF79AFB00F0D8FD54F8203085
:102EB400054673B90F493046FFF790FB0190A820EF
:102EC40001F0CEF90199064600F01EFE54F82530B3
:102ED4001E6054F825301C684CB1204600F0F4FD07
:102EE400A821204602B0BDE8704001F0BBB902B091
:102EF40070BD00BF00490008800300200368184724
:102F0400012A03D0022A03D0002070470160FBE7A6
:102F14000B680360F8E7836810B5044613B1032215
:102F240001469847204610BD0023012803F1010201
:102F340002D040081346F8E71421DBB24B43044A9D
:102F4400181D1044816811B11A4413691847704759
:102F5400280100200120FEF701B90220FEF7FEB887
:102F64000420FEF7FBB80820FEF7F8B81020FEF79F
:102F7400F5B838B505242025A8B2FEF7EFF8013CD2
:102F84004FEA4505F8D138BD38B506244FF48065BD
:102F9400A8B2FEF7E3F8013C4FEA4505F8D138BD85
:102FA40038B5002383608B6804460D462BB102229A
:102FB4009847EB68E360AB68A360204638BD000027
:102FC4002DE9F04117468CB00A460024012A04F189
:102FD400010502D052082C46F8E7E4B26200CDE9BC
:102FE4000713C168DFF87C80032393400B40D34070
:102FF40003F0030303AD099307A902230A93FDF722
:10300400E1FF1423394628465C43FFF7C9FF95E8DE
:10301400030008EB040301AA043382E8030093E8E5
:10302400030085E8030092E80300261D83E80300FB
:103034004644059BB268B360069B05922846F26835
:10304400F3600692FFF767FF18F9040000220621D7
:10305400FDF728FF18F90400FDF756FF0CB0BDE892
:10306400F08100BF28010020204B07211975082199
:1030740083F82810092183F83C100A21062283F8DA
:10308400501017211A7083F86410002283F8781006
:1030940083F88C1083F8A01083F8B4102821DA6028
:1030A4001A625A639A64DA651A67C3F88420C3F80B
:1030B4009820C3F8AC20C3F8C02083F8C810C3F824
:1030C400D42083F8DC10C3F8E82083F8F010C3F8A8
:1030D400FC2083F80411C3F8102183F81811C3F8F5
:1030E400242183F82C11C3F83821704728010020CB
:1030F40038B5054CA4F5A075143C201DFFF70BFF53
:10310400AC42F9D138BD00BF6802002000B595B0CB
:10311400102200210AA801F0EDF81422002103A8CE
:1031240001F0E8F8244B002101911A6C42F080521E
:103134001A641B6C214A03F080530193019B029192
:10314400136823F4404343F400431360136803F407
:1031540040430293029B01224FF4A023CDE90823AC
:1031640002214FF480030820CDE90E134FF4A87315
:10317400CDE910034FF0040C072308A8CDE912C3CE
:10318400FDF7F8FF18B10E489421FFF76BFA0F23EF
:103194000221CDE903314FF48052002303A8CDE985
:1031A40005320793FEF7BCF918B10548A321FFF7D0
:1031B40059FA15B05DF804FB003802400070004075
:1031C400F84A0008DFF834D0002103E00C4B5B58C8
:1031D400435004310B480C4B42189A42F6D30B4A25
:1031E40002E0002342F8043B094B9A42F9D3FFF76B
:1031F4003BFA01F04BF801F029F8704700800120F8
:10320400F44D000800000020BC000020BC00002099
:10321400BC030020FEE791420FD008D9891A01238C
:103224008B40984208D30130C8400138704720B120
:103234000130511A8840F8E70020704733282DE9FF
:10324400F04104460F462DD8274B33F910506A1C21
:1032540047D02649DFF8A8802846FFF7F7F8064646
:1032640058B3C5F30311224A52F8210005F00F04A4
:1032740020FA04F3DB075FBF0123A340034342F8B2
:1032840021301C4BD8F800101C6838462246FFF742
:10329400C2FF19490246E3B228460968BDE8F04175
:1032A400FFF7AABDA0F135030C2B1AD8134A52F824
:1032B40023200D4B33F91250C9E72046012100F0B9
:1032C40021F8D8F8001038460822FFF7A4FF7F2819
:1032D40098BF3146204688BF0121BDE8F04100F087
:1032E4006BB8BDE8F08100BF8C4B000800490008B2
:1032F400680200204C00002050000020584B0008B9
:103304005400002033282DE9F0410E4627D8254BE0
:1033140033F91040621C42D0234DC4F3031704F068
:103324000F0855F8273023FA08F3DB0710D51F4997
:103334002046FFF78BF810B12046FFF7AFFD0123BD
:1033440003FA08F255F8273023EA020345F8273038
:10335400052E1ED8DFE806F00D191315171B353896
:103364000C281CD8124B53F820200E4B33F9124072
:10337400D0E700212046BDE8F041FFF777B81021DF
:10338400F8E72021F6E70321F4E70121F2E7092118
:10339400F0E7BDE8F04107484921FFF763B9BDE80C
:1033A400F08100BF8C4B000868020020004900082F
:1033B400584B0008F44B0008332814D8114B33F948
:1033C4001030C3F30312052A98BF0F4803F00F030C
:1033D40098BF50F822200D4888BF002250F82330AF
:1033E40071B19361704735380C289DBF084B53F871
:1033F4002020044B4FF0FF3398BF33F91230E0E73D
:103404001B04EEE78C4B00083000002074480008D1
:10341400584B0008332814D8124B33F91030C3F337
:103424000312052A1AD8104903F00F0351F8222079
:103434000E49126951F8233093430CBF0120002038
:10344400704735380C289DBF094B53F82020054B95
:103454004FF0FF3398BF33F91230E0E700231B69C4
:10346400FFDE00BF8C4B00083000002074480008C9
:10347400584B0008FEF792BF38B5044648B1FEF732
:103484008DFF054600F0F2FEFEF788FF431BA342C2
:10349400F8D338BDB0F86230013303F03F03A0F82D
:1034A4006230B0F86230B0F85E009BB298424FF0E0
:1034B400FF3018BF00207047B0F8F430B0F8F000C7
:1034C400181A00F03F007047B0F8F430B0F8F0205C
:1034D4009BB293421ABFD0F8E830985C4FF0FF30AB
:1034E400704713B50DF107010446FFF777FB90B958
:1034F400B4F86030B4F85C20013303F03F03934226
:1035040009D0B4F86020616D9DF8070092B29BB2B7
:103514008854A4F8603002B010BD0000012370B5D7
:103524000374B0F9E230013304460E4600F1940509
:1035340008D190F8F8302BB1002380F8F8302846F1
:10354400FFF7B2FBB4F8F2104B1C03F03F03B4F8DE
:10355400F62092B29342FAD0D4F8EC20284656547E
:10356400A4F8F230FFF728FB18B903492846FFF7FF
:1035740077FB012070BD00BF99340008037C33B190
:10358400B0F8F220B0F8F6309BB29A42FAD1704704
:1035940000F11103914208BF4FF0FF31A0F8E02081
:1035A400C0F8E83000F151020023A0F8F430C0E97B
:1035B4003B23A0F8E210A0F8F630704770B54FF442
:1035C4007A7316460022C0E90123164B03604FF6B6
:1035D400FF73A0F8E230144B984204460D4614D110
:1035E400124B1A88A0F8E2205B88A0F8E030012E84
:1035F40004BF4FF6FF73A4F8E2302046B4F9E0208C
:10360400B4F9E210FFF7C4FF70BD09492846FEF77C
:10361400F7FF0849A4F8E2002846FEF7F1FFA4F8F2
:10362400E000E4E7B84C0008800200208C4B00085E
:10363400684A0008B04A0008B0F9E230013310B516
:1036440004460ED103685B69984794F8F83043B98F
:10365400012384F8F83004F19400BDE81040FFF72A
:1036640033BB10BD02F00703023BDBB2042B2DE990
:10367400F7430E46C0F8FC1098BF1F4980F8F920A4
:1036840098BFCC5C02F0300388BF0024302B054681
:1036940026D101344FF4C06712F0080F14BF4FF461
:1036A40000594FF00009082C21D0092C21D01348CF
:1036B4004FF4C171FEF7D6FF05F1940831463B463D
:1036C40022464046CDF80090FFF760FA2846FFF7FF
:1036D400B3FF0B49404603B0BDE8F043FFF79ABA85
:1036E40012F020071CBF01344FF48067D4E7002494
:1036F400E2E74FF48054DFE7A84C00084D4C000883
:10370400E734000810B50446FFF796FFB4F8F42038
:10371400B4F8F03092B29A421FBFD4F8E820D05CDB
:10372400013303F03F0314BFA4F8F0304FF0FF302F
:1037340010BD0000024903480022FFF73FBF00BF4D
:103744000044004080020020836810B504462BB179
:103754000322014698470023C4E90233204610BDE2
:103764004B1E032B9ABF880004384FF0FF3070477C
:103774000139435C2BB1022907D8054B33F81100FA
:103784007047032901D8034BF8E74FF0FF30704727
:10379400324D0008384D00082DE9F04104460F462B
:1037A400FFF7DEFF431C054604D13F4840F24D11AC
:1037B400FEF758FF7E1E032E28D83C4B13F80680D4
:1037C40039462046FFF7D4FF013004D1364840F291
:1037D4005711FEF747FF04EB07175837BB683BB197
:1037E40023696FEA08021A61DA6842EA0802DA60B9
:1037F40004EB46039B88013B0B2B4BD8DFE803F01B
:103804001B1B1B1B0E0E1B1B4C4C4C2826484FF439
:10381400A9714FF0FF38FEF725FFD1E7A35D04F14E
:10382400100029461BB1BDE8F041FEF70BBBBDE813
:10383400F041FEF7CFBAA35D04F1100029461BB195
:10384400BDE8F041FEF7E8BABDE8F041FEF7A6BADC
:10385400294604F11000FEF7BFFA032E98BF144B5B
:10386400256994BF9A574FF0FF3211462046FFF75F
:103874007FFF2B6A1843BB6828625BB1013A032AB5
:103884009ABF0A4B9A5C4FF0FF32D3432B61EB682B
:103894001343EB60BDE8F081294604F11000BDE854
:1038A400F041FEF799BA00BFD84C0008404D00081B
:1038B400444D0008036E10B5044653B150F8103F50
:1038C4006FF001021A61DA6842F00102DA60FDF772
:1038D400C5FF20460121FFF75FFF20460221FFF7C5
:1038E4005BFF20460321FFF757FF20460421BDE874
:1038F4001040FFF751BF00002DE9F0418CB00E4697
:10390400044690461F46FFF72BFF411C054604D191
:103914004B4840F24D21FEF7A5FE013E04EB460361
:10392400A3F804804FF6FF7305932369D5B95B6B45
:10393400069300204FF6FF720123CDE90900CDE97B
:103944000123CDE90300079008900B90B8F10C0F08
:103954001ED8DFE808F010101632353740424446CE
:103964004E515300042D01D19B6BE1E7082D0CBF90
:10397400DB6B1B6CDCE705902A4605A904F11000FB
:1039840004E0102305932A4605A9E018FEF7B0F8D1
:103994007B1C0FD03846FFF71FFAA8424AD12949A9
:1039A4003846FEF7FBFD27493846FEF73BFEC0F3D9
:1039B4000050A0550CB0BDE8F08120230593DBE74F
:1039C4003023FBE760232A4605A904F11000059380
:1039D400FEF7BAF8DCE77023F5E75023EEE740235F
:1039E400ECE701902A4601A904F11000FEF73EF924
:1039F400CEE702230193F5E70A23FBE704F110085D
:103A040001A901902A464046FEF730F9032E9ABFD9
:103A14000D4B99574FF0FF3104EB41030C225A80B0
:103A240020460223CDE90133FFF79AFE01A902469D
:103A34004046DBE7024840F2B721FEF713FEB2E747
:103A4400D84C000800490008444D000801390329F6
:103A54009ABF00EB4100808800207047164A9042CC
:103A640003461BD0B0F1804F1AD0A2F57C4290429D
:103A740018D002F58062904216D002F5806290421E
:103A840014D04FF6FF700D4A934211D00C4A934262
:103A940010D00C4A934208BF072070470020F2E779
:103AA4000120F0E70220F1E70320F2E70420704749
:103AB4000520704706207047000001400040014087
:103AC4000044014000480140014670B5044651F8E5
:103AD400100FFFF7C3FF05460846FEF77DFE094AAF
:103AE400002342F8253004F15806E36004F1A805E8
:103AF400B54204D0103D2846FFF70DFAF8E72046FA
:103B040070BD00BF80030020F8B50023036603677F
:103B1400C0F88030C0F89030C0F8A03004460846A1
:103B24000D46FFF79BFF4FF6FF739842064603D1FD
:103B34001E482F21FEF796FD1D4A256104F10C0352
:103B440042F8263000230E2204F11006C4E90C3397
:103B5400C4E90E33C4E91033C4E9142384F82C30C7
:103B6400A36484F84C3084F84D30E4603046FEF7AA
:103B7400A3FD04F1580504F1A80728461035FFF702
:103B8400E3FDBD42F9D100234FF6FF72C4E90033CF
:103B9400C4E90632C4E90833A36063618023A362E5
:103BA4003046FDF75FFF2046F8BD00BFD84C000843
:103BB4008003002030B58DB014220446002102A8F1
:103BC40000F098FB002501A902A80195FDF76AFD04
:103BD4002069FEF7FDFE012808D0022821D01B48E9
:103BE40040F2FF41FEF73EFD2C4603E0059DFDF744
:103BF40039FD04461422002107A800F07BFB07A826
:103C0400FDF76EFD9DF82C30012B10D125F4806555
:103C1400B5F5C05F09D0FDF71FFD044620460DB081
:103C240030BD069DFDF72EFDE3E7A400F6E7B5F5EC
:103C3400C05F05D006D825F48065B5F5805FEDD169
:103C44006400EBE7B5F5E05FF9E700BFD84C000886
:103C5400012A38B505460C4607D0022A12D004B111
:103C6400013C2B69DC62EC6138BDFFF7A3FF084916
:103C7400B0FBF1F044432B69210C99620131B4FB90
:103C8400F1F4ECE7FFF796FFB0FBF4F4F3E700BFC1
:103C940040420F002DE9F04180461D461446FFF7CF
:103CA4005FFDD8F810309E6A431C074606F10106F2
:103CB40004D1264840F2F621FEF7D4FC822D34D0FC
:103CC4001ED8102D0BD865B1D8F81030DA6A02FB73
:103CD40004420124AC40013CB2FBF4F401E0812D28
:103CE40019D0D8F81030DA6A4FF6FF718A4203D13E
:103CF400B4F5803F08BF1446F7B95C63BDE8F081B2
:103D0400832DEED1D8F81030DA6A02FB0444642221
:103D1400B4FBF2F4E5E74046FFF74CFF0C4AB0FB76
:103D2400F2F04443B4FBF6F4DBE74046FFF742FF0E
:103D34007443B0FBF4F4D4E7042F01D19C63DDE7B2
:103D4400082F0CBFDC631C64D8E700BFD84C000804
:103D540040420F0010B5074C206810B10430FDF745
:103D640091FDA06920B1BDE810400430FDF78ABD83
:103D740010BD00BF80030020034B186810B104304D
:103D8400FDF780BD704700BF80030020034B5868D7
:103D940010B10430FDF776BD704700BF80030020EA
:103DA400034B986810B10430FDF76CBD704700BF39
:103DB40080030020034BD86810B10430FDF762BDC6
:103DC400704700BF80030020034B186910B1043012
:103DD400FDF758BD704700BF80030020034B5869AE
:103DE40010B10430FDF74EBD704700BF80030020C2
:103DF400034BD86910B10430FDF744BD704700BFD0
:103E040080030020826810B50AB900F0A5FCBDE863
:103E14001040C3681847000010B5044620B907488D
:103E240040F22641FEF71EFC2046FEF743FC0068E4
:103E3400036E13B15830FFF7E5FF10BDD84C0008EE
:103E4400FFF7EABF38B5054620B9114840F23941B9
:103E5400FEF708FC2B7F013B072B11D8DFE803F0AA
:103E6400150410111010101302242846FEF722FC2A
:103E7400240100685834204483680BB1FFF7C2FF63
:103E840038BD0324F1E70424EFE70124EDE700BF84
:103E9400D84C0008FFF7D6BFFFF7D4BFF8B50546E6
:103EA4000E4617460024BC4207D02B68315D1B68C0
:103EB4002846984708B10134F5E72046F8BD13B504
:103EC4000446084659B10191FCF762F92368019947
:103ED4005B680246204602B0BDE81040184702B0B5
:103EE40010BD03681B68184708B50249FFF7E7FFD0
:103EF40008BD00BF484D000830B58BB000238DF8D5
:103F04002430012A98BF0A2209AC0D46B1FBF2F114
:103F140001FB125303F0FF03092B94BF30333733F3
:103F2400DBB2AA4204F8013DEFD92146FFF7C7FFEF
:103F34000BB030BD2DE9F04107460E4614462AB9B0
:103F44000368BDE8F0411B68C9B218470A2A0DD1BD
:103F540000290CDA2D21FFF7C4FF224605467142E1
:103F64003846FFF7C9FF2844BDE8F081D2B2BDE866
:103F7400F041FFF7C1BF00002DE9F84F55EC104B9D
:103F840006460F4610EE102A10EE100A2B4629465C
:103F9400FCF75CFD38B14B493046FFF790FF824691
:103FA4005046BDE8F88F25F00049474B4FF0FF32EB
:103FB40020464946FCF74AFD48B9434B4FF0FF32CF
:103FC40020464946FCF724FD08B94049E4E7404B44
:103FD4004FF0604220462946FCF72EFD08B13D49CA
:103FE400DAE73D4B4FF0604220462946FCF706FDD8
:103FF4000028F4D10022002320462946FCF7FEFCC9
:10400400D0B12D213046FFF76CFF05F10043824605
:104014001D463249DFF8CC904FF0000B00204FF0E2
:1040240000085FFA8BF39F4208D942464B46FCF7DF
:104034009DFB0BF1010BF4E78246EAE722462B468F
:10404400FCF7B4F80D460446FCF73EFD8046FCF749
:10405400E9F902460B4620462946FCF7A5F80A2250
:1040640004460D4630464146FFF746FF824427B1D9
:104074001B493046FFF723FF8244DFF868904FF076
:104084000008013FFFB2FF2F8AD04B46424620462C
:104094002946FCF741FA0D460446FCF7EDFC0A22DA
:1040A400014683463046FFF745FF82445846FCF7F5
:1040B400C9F902460B4620462946FCF775F8044622
:1040C4000D46DEE74B4D0008FFFFEF7F4F4D000824
:1040D400FFFFEF41534D0008FFFFEFC10000E03F39
:1040E400574D00080000244038B5C9B20546FFF713
:1040F40043FF04462846FFF7F7FE204438BD10B5B9
:104104000446FFF7B7F9E06023682046DB68984768
:10411400002808DAFFF7AEF9E368C01AA3689842EA
:10412400F2D34FF0FF3010BDF8B506460D461746E2
:104134000024BC4207D03046FFF7E1FF031E02DB38
:104144002B550134F5E72046F8BD2DE9F04107462B
:10415400884616461D4673B100243846FFF7CFFF44
:10416400031E05DB434503D033550134A542F4D186
:104174002046BDE8F0811C46FAE7000070B53328FC
:1041840086B0164623D8184B33F910400191C4F376
:104194000310FEF79BF80546B8B1042E98BF134BE5
:1041A400019994BF53F82660114E02A8FEF7F8FE59
:1041B40004F00F040121A1402846334602AA89B223
:1041C400FEF7FEFE02A8FEF7A6FE06B070BD353867
:1041D4000C289DBF074B53F82020034B4FF0FF34AE
:1041E40098BF33F91240D1E78C4B00085C4D0008AE
:1041F40000001110584B000810B58AB00023044683
:10420400049321B10B4B05930B4B0291049302A928
:1042140006A80192FEF7C4FE019A06A92046FFF7FC
:10422400ADFF06A8FEF777FE02A8FEF774FE0AB0FB
:1042340010BD00BF012F0008052F000808B503209A
:10424400FCF71EFEBDE8084000F00EB808B5AFF359
:104254000080FCF7E3FCFCF705FD00F009F8FAE741
:1042640000F038B800F03EB8FEF7C0B87047000060
:1042740008B5044B2BB10448FFF71EF908B1AFF39E
:10428400008008BD000000008002002070B50D4DC4
:104294000D4C641BA4100026A64209D10B4D0C4CF6
:1042A40000F0A8FA641BA4100026A64205D170BD34
:1042B40055F8043B98470136EEE755F8043B984718
:1042C4000136F2E7D84D0008D84D0008D84D000853
:1042D400EC4D0008024B0146186800F063B800BFBB
:1042E40058000020024B0146186800F00BB800BFCC
:1042F4005800002002440346934200D1704703F85B
:10430400011BF9E737B5002948D051F8043C019066
:10431400002BA1F10404B8BFE41800F0AFF8204A60
:1043240001981368154633B96360146003B0BDE89F
:10433400304000F0A9B8A3420BD921686218934217
:1043440004BF1A685B68636004BF521822602C6063
:10435400ECE71A465B680BB1A342FAD91168551809
:10436400A5420BD1246821445418A3421160DDD125
:104374001C685B68536021441160D7E702D90C23A1
:104384000360D3E7256861198B4204BF19685B6831
:10439400636004BF491921605460C7E703B030BDAE
:1043A400A0030020F8B5CD1C25F0030508350C2D1D
:1043B40038BF0C25002D064601DBA94203D90C2386
:1043C40033600020F8BD00F059F821490A6814460A
:1043D4009CB9204F3B6823B92146304600F03CF895
:1043E40038602946304600F037F8431C23D10C23AB
:1043F4003360304600F048F8E3E723685B1B17D4CA
:104404000B2B03D923601C44256004E06368A2429B
:104414000CBF0B605360304600F036F804F10B001B
:10442400231D20F00700C21ACCD01B1AA350C9E7E1
:1044340022466468CCE7C41C24F00304A042E3D001
:10444400211A304600F008F80130DDD1CFE700BF73
:10445400A0030020A403002038B5064D0023044621
:1044640008462B60FCF790FC431C02D12B6803B177
:10447400236038BDAC030020704770470148FFF744
:10448400FBBF00BFB40300200148FFF7F6BF00BF25
:10449400B40300202DE9F047089D04468C46002B08
:1044A40040F083808A42174647D9B2FA82F242B179
:1044B400C2F1200024FA00F09140974040EA010C38
:1044C40094404FEA1748230CBCFBF8F61FFA87FE0A
:1044D40008FB16C143EA014306FB0EF1994209D9D0
:1044E400FB1806F1FF3080F01981994240F21681E1
:1044F400023E3B445B1AA4B2B3FBF8F008FB103352
:1045040044EA034400FB0EFEA64509D93C1900F118
:10451400FF3380F00581A64540F2028102383C4415
:1045240040EA0640A4EB0E0400261DB1D44000234B
:10453400C5E900433146BDE8F08702B9FFDEB2FAAF
:1045440082F2002A50D1CB1B4FEA174E1FFA87F88C
:104554000126B3FBFEFC210C0EFB1C3341EA034194
:1045640008FB0CF38B4207D979180CF1FF3002D207
:104574008B4200F2E9808446C91AA3B2B1FBFEF073
:104584000EFB101143EA014408FB00F8A04507D9CB
:104594003C1900F1FF3302D2A04500F2D98018463D
:1045A400A4EB080440EA0C40BFE78B4209D9002D74
:1045B40000F0B1800026C5E9000130463146BDE86F
:1045C400F087B3FA83F6002E4AD18B4202D382429B
:1045D40000F2B880841A61EB030101208C46002D9F
:1045E400A8D0C5E9004CA5E7C2F1200320FA03F6E0
:1045F400974001FA02F04FEA174ED9403043030CBA
:10460400B1FBFEF61FFA87F80EFB161143EA0143CD
:1046140006FB08F1994204FA02F409D9FB1806F1E1
:10462400FF3C80F08D80994240F28A80023E3B44F8
:104634005B1A81B2B3FBFEF00EFB103341EA034177
:1046440000FB08F38B4207D9791800F1FF3C73D2C1
:104654008B4271D902383944CB1A40EA064678E7CE
:10466400C6F1200C03FA06F422FA0CF31C4320FAD8
:104674000CF701FA06F34FEA144E21FA0CF11F432A
:104684003B0CB1FBFEF91FFA84F80EFB191143EA47
:10469400014109FB08FA8A4502FA06F200FA06F318
:1046A40008D9611809F1FF3048D28A4546D9A9F1E1
:1046B40002092144A1EB0A01BFB2B1FBFEF00EFBDB
:1046C400101147EA014700FB08F8B84507D9E71974
:1046D40000F1FF312ED2B8452CD90238274440EAE4
:1046E4000940A7EB0807A0FB02894F45C646494687
:1046F4001AD317D05DB1B3EB0E0267EB010707FACB
:104704000CFCF2404CEA0202F740C5E900270026FF
:104714003146BDE8F0872E4628460BE70646E9E613
:104724001846FDE64345E5D2B8EB020E69EB0401F9
:104734000138DFE70846D2E760468DE78146B9E7EE
:10474400664675E730464AE7ACF1020C394413E794
:1047540002383C4424E700BF08B500F000F808B56F
:10476400062000F02BF80120FCF72CFB1F2938B59C
:1047740004460D4604D9162303604FF0FF3038BDBC
:10478400426C12B152F821304BB9204600F030F897
:104794002A4601462046BDE8384000F017B8012BF0
:1047A4000AD0591C03D1162303600120E7E7002433
:1047B40042F82540284698470020E0E7024B01468E
:1047C4001868FFF7D3BF00BF5800002038B5074D65
:1047D40000230446084611462B60FCF7F5FA431CF7
:1047E40002D12B6803B1236038BD00BFAC030020A5
:1047F400FCF7F2BAF8B500BFF8BC08BC9E46704797
:0C480400F8B500BFF8BC08BC9E46704729
:104810002F686F6D652F6A6F686E2F2E61726475D9
:10482000696E6F31352F7061636B616765732F53EC
:10483000544D33322F68617264776172652F7374DF
:104840006D33322F312E392E302F6C6962726172C6
:104850006965732F537263577261707065722F733D
:1048600072632F73746D33322F70696E6D61702EA9
:1048700063000000010000000200000004000000CE
:1048800008000000100000002000000040000000B0
:104890008000000000010000000200000004000091
:1048A0000008000000100000002000000040000090
:1048B000008000000000000000000000010203046E
:1048C00006070809000000000102030454494D3A9C
:1048D00020556E6B6E6F776E2074696D657220491E
:1048E00052516E0054494D3A20556E6B6E6F776E83
:1048F0002074696D657220696E7374616E63650002
:1049000000000000000C00401282000001000000C6
:10491000000C00401202010002000000000C0040E8
:104920001282010003000000000C0040120202008D
:104930000500000000000040128100000600000099
:104940000004004012820000070000000004004044
:104950001202010008000000000001401281000066
:104960000900000000000140120101000A000000DF
:1049700000000140128101000B0000000000014016
:10498000120102000F000000000000401281000030
:10499000100000000004004012820100110000001D
:1049A000000400401202020013000000000000405A
:1049B00012010100140000000004004012820000F7
:1049C0001500000000040040120201001600000063
:1049D000000800401282000017000000000800409C
:1049E00012020100180000000008004012820100BD
:1049F0001900000000080040120202001A00000026
:104A000000000040128101001D0000000000014074
:104A1000128110001E000000000001401201110070
:104A20001F0000000000014012811100260000005C
:104A30000004004012820000270000000004004033
:104A40001202010028000000000400401282010050
:104A5000290000000004004012020200FFFF0000D5
:104A600000000000000000000300000000440040BF
:104A7000120700000A0000000010014012070000A9
:104A80000C00000000140140120800001700000094
:104A90000010014012070000270000000014014030
:104AA00012080000FFFF00000000000000000000EE
:104AB000020000000044004012070000090000004E
:104AC00000100140120700000B000000001401401C
:104AD000120800001600000000100140120700003C
:104AE000260000000014014012080000FFFF000033
:104AF00000000000000000002F686F6D652F6A6FD6
:104B0000686E2F2E61726475696E6F31352F70611A
:104B1000636B616765732F53544D33322F68617235
:104B200064776172652F73746D33322F312E392E95
:104B3000302F76617269616E74732F4E55434C4508
:104B40004F5F4634783152452F76617269616E74D9
:104B50002E637070000000002E0000002F00000087
:104B6000300000003100000032000000330000007F
:104B70000B0000000C0000001C0000001D000000E5
:104B800023000000290000002D00000003000200A7
:104B90000A001300150014001A000800090027007D
:104BA0001600070006000500190018002A002C0056
:104BB000FFFF0D000E000F0017002D002E002F002C
:104BC00050005100220023002B0032002900280051
:104BD000260025000C000B001C001B001200110019
:104BE0001F001E001D002400000001000400100032
:104BF000210020002F686F6D652F6A6F686E2F2E61
:104C000061726475696E6F31352F7061636B6167B6
:104C100065732F53544D33322F686172647761721C
:104C2000652F73746D33322F312E392E302F636F11
:104C30007265732F61726475696E6F2F776972691F
:104C40006E675F6469676974616C2E63002F686FBB
:104C50006D652F6A6F686E2F2E61726475696E6F55
:104C600031352F7061636B616765732F53544D331A
:104C7000322F68617264776172652F73746D33329D
:104C80002F312E392E302F636F7265732F6172644E
:104C900075696E6F2F4861726477617265536572D2
:104CA00069616C2E63707000060007000800000048
:104CB000000000000000000021350008A13E0008AF
:104CC000BD34000809370008CD34000881350008DC
:104CD0002D4100084F4100082F686F6D652F6A6FE6
:104CE000686E2F2E61726475696E6F31352F706139
:104CF000636B616765732F53544D33322F68617254
:104D000064776172652F73746D33322F312E392EB3
:104D1000302F636F7265732F61726475696E6F2FC8
:104D2000486172647761726554696D65722E637053
:104D30007000040040000004010010000001001099
:104D400002040810020104030D0A006E616E00697E
:104D50006E66006F7666002E0000000000002110D5
:104D6000000011100000311000002110000011108F
:104D70000000000000000000000000000000000033
:104D80000000000000000000000000000000000023
:104D90000000000000000000000000000000000013
:104DA0000000000000000000000000000000000003
:104DB00000000000000000000000000000000000F3
:104DC00000000000000000000000000000000000E3
:084DD000C8F6FF7F010000009E
:104DD80041420008650B0008950C00086D3000087A
:044DE800393700084F
:084DEC00410B0008F53000083E
:104DF40005000000000000000000000000000000AA
:104E0400000000000000000000000000C8000000D6
:104E140000000000C003002001000000100000009A
:104E2400000002400004024000080240000C02405E
:104E340000100240001C02400024F400080000009E
:104E4400E8030000080000005C00002000000000EF
:104E5400904D0008B04D0008704D0008000000009F
:104E6400000000000000000000000000000000003E
:104E7400000000000000000000000000000000002E
:104E8400000000000000000000000000000000001E
:104E9400000000000000000000000000000000000E
:0C4EA40000000000000000000000000002
:04000005080031C9F5
:00000001FF
